{
  "contractName": "MarketPlace",
  "abi": [
    {
      "inputs": [
        {
          "internalType": "string",
          "name": "_name",
          "type": "string"
        },
        {
          "internalType": "address",
          "name": "_contract",
          "type": "address"
        }
      ],
      "stateMutability": "nonpayable",
      "type": "constructor"
    },
    {
      "anonymous": false,
      "inputs": [
        {
          "indexed": false,
          "internalType": "uint256",
          "name": "productId",
          "type": "uint256"
        }
      ],
      "name": "LogProductBought",
      "type": "event"
    },
    {
      "anonymous": false,
      "inputs": [
        {
          "components": [
            {
              "internalType": "uint256",
              "name": "tokenId",
              "type": "uint256"
            },
            {
              "internalType": "address",
              "name": "owner",
              "type": "address"
            },
            {
              "internalType": "bool",
              "name": "sold",
              "type": "bool"
            },
            {
              "internalType": "uint256",
              "name": "price",
              "type": "uint256"
            },
            {
              "internalType": "uint256",
              "name": "productId",
              "type": "uint256"
            }
          ],
          "indexed": false,
          "internalType": "struct MarketPlace.Product",
          "name": "product",
          "type": "tuple"
        }
      ],
      "name": "LogProductInSell",
      "type": "event"
    },
    {
      "inputs": [
        {
          "internalType": "uint256",
          "name": "_tokenId",
          "type": "uint256"
        },
        {
          "internalType": "uint256",
          "name": "_price",
          "type": "uint256"
        }
      ],
      "name": "addProductToSell",
      "outputs": [],
      "stateMutability": "nonpayable",
      "type": "function"
    },
    {
      "inputs": [],
      "name": "getProductsInSell",
      "outputs": [
        {
          "components": [
            {
              "internalType": "uint256",
              "name": "tokenId",
              "type": "uint256"
            },
            {
              "internalType": "address",
              "name": "owner",
              "type": "address"
            },
            {
              "internalType": "bool",
              "name": "sold",
              "type": "bool"
            },
            {
              "internalType": "uint256",
              "name": "price",
              "type": "uint256"
            },
            {
              "internalType": "uint256",
              "name": "productId",
              "type": "uint256"
            }
          ],
          "internalType": "struct MarketPlace.Product[]",
          "name": "",
          "type": "tuple[]"
        }
      ],
      "stateMutability": "view",
      "type": "function",
      "constant": true
    },
    {
      "inputs": [
        {
          "internalType": "uint256",
          "name": "productId",
          "type": "uint256"
        }
      ],
      "name": "getProduct",
      "outputs": [
        {
          "components": [
            {
              "internalType": "uint256",
              "name": "tokenId",
              "type": "uint256"
            },
            {
              "internalType": "address",
              "name": "owner",
              "type": "address"
            },
            {
              "internalType": "bool",
              "name": "sold",
              "type": "bool"
            },
            {
              "internalType": "uint256",
              "name": "price",
              "type": "uint256"
            },
            {
              "internalType": "uint256",
              "name": "productId",
              "type": "uint256"
            }
          ],
          "internalType": "struct MarketPlace.Product",
          "name": "",
          "type": "tuple"
        }
      ],
      "stateMutability": "view",
      "type": "function",
      "constant": true
    },
    {
      "inputs": [
        {
          "internalType": "uint256",
          "name": "productId",
          "type": "uint256"
        }
      ],
      "name": "buyProduct",
      "outputs": [
        {
          "components": [
            {
              "internalType": "uint256",
              "name": "tokenId",
              "type": "uint256"
            },
            {
              "internalType": "address",
              "name": "owner",
              "type": "address"
            },
            {
              "internalType": "bool",
              "name": "sold",
              "type": "bool"
            },
            {
              "internalType": "uint256",
              "name": "price",
              "type": "uint256"
            },
            {
              "internalType": "uint256",
              "name": "productId",
              "type": "uint256"
            }
          ],
          "internalType": "struct MarketPlace.Product",
          "name": "",
          "type": "tuple"
        }
      ],
      "stateMutability": "payable",
      "type": "function",
      "payable": true
    }
  ],
  "bytecode": "0x60806040526001805560006002553480156200001a57600080fd5b5060405162001d0538038062001d05833981810160405281019062000040919062000195565b80600090805190602001906200005892919062000067565b5060018081905550506200036a565b82805462000075906200027b565b90600052602060002090601f016020900481019282620000995760008555620000e5565b82601f10620000b457805160ff1916838001178555620000e5565b82800160010185558215620000e5579182015b82811115620000e4578251825591602001919060010190620000c7565b5b509050620000f49190620000f8565b5090565b5b8082111562000113576000816000905550600101620000f9565b5090565b60006200012e62000128846200020f565b620001e6565b9050828152602081018484840111156200014d576200014c6200034a565b5b6200015a84828562000245565b509392505050565b600082601f8301126200017a576200017962000345565b5b81516200018c84826020860162000117565b91505092915050565b600060208284031215620001ae57620001ad62000354565b5b600082015167ffffffffffffffff811115620001cf57620001ce6200034f565b5b620001dd8482850162000162565b91505092915050565b6000620001f262000205565b9050620002008282620002b1565b919050565b6000604051905090565b600067ffffffffffffffff8211156200022d576200022c62000316565b5b620002388262000359565b9050602081019050919050565b60005b838110156200026557808201518184015260208101905062000248565b8381111562000275576000848401525b50505050565b600060028204905060018216806200029457607f821691505b60208210811415620002ab57620002aa620002e7565b5b50919050565b620002bc8262000359565b810181811067ffffffffffffffff82111715620002de57620002dd62000316565b5b80604052505050565b7f4e487b7100000000000000000000000000000000000000000000000000000000600052602260045260246000fd5b7f4e487b7100000000000000000000000000000000000000000000000000000000600052604160045260246000fd5b600080fd5b600080fd5b600080fd5b600080fd5b6000601f19601f8301169050919050565b61198b806200037a6000396000f3fe60806040526004361061003f5760003560e01c80633cecefa6146100445780638642269e1461006f578063b9db15b41461009f578063c2c29cec146100dc575b600080fd5b34801561005057600080fd5b50610059610105565b6040516100669190611380565b60405180910390f35b6100896004803603810190610084919061103d565b610416565b6040516100969190611462565b60405180910390f35b3480156100ab57600080fd5b506100c660048036038101906100c1919061103d565b6109bf565b6040516100d39190611462565b60405180910390f35b3480156100e857600080fd5b5061010360048036038101906100fe9190610fb2565b610c3b565b005b606060008060025467ffffffffffffffff811115610126576101256117a8565b5b60405190808252806020026020018201604052801561015f57816020015b61014c610e1f565b8152602001906001900390816101445790505b5090506000600190505b6001548110801561017b575060025483105b1561040d57600115156003600083815260200190815260200160002060020160009054906101000a900460ff16151514156103fa57600360008281526020019081526020016000206040518060e00160405290816000820180546101de9061166f565b80601f016020809104026020016040519081016040528092919081815260200182805461020a9061166f565b80156102575780601f1061022c57610100808354040283529160200191610257565b820191906000526020600020905b81548152906001019060200180831161023a57829003601f168201915b505050505081526020016001820180546102709061166f565b80601f016020809104026020016040519081016040528092919081815260200182805461029c9061166f565b80156102e95780601f106102be576101008083540402835291602001916102e9565b820191906000526020600020905b8154815290600101906020018083116102cc57829003601f168201915b505050505081526020016002820160009054906101000a900460ff16151515158152602001600382015481526020016004820160009054906101000a900473ffffffffffffffffffffffffffffffffffffffff1673ffffffffffffffffffffffffffffffffffffffff1673ffffffffffffffffffffffffffffffffffffffff1681526020016005820160009054906101000a900473ffffffffffffffffffffffffffffffffffffffff1673ffffffffffffffffffffffffffffffffffffffff1673ffffffffffffffffffffffffffffffffffffffff1681526020016006820154815250508284815181106103e0576103df611779565b5b602002602001018190525082806103f6906116d2565b9350505b8080610405906116d2565b915050610169565b50809250505090565b61041e610e1f565b60008211801561042f575060015482105b61046e576040517f08c379a0000000000000000000000000000000000000000000000000000000008152600401610465906113a2565b60405180910390fd5b6003600083815260200190815260200160002060020160009054906101000a900460ff166104d1576040517f08c379a00000000000000000000000000000000000000000000000000000000081526004016104c8906113e2565b60405180910390fd5b3373ffffffffffffffffffffffffffffffffffffffff166003600084815260200190815260200160002060040160009054906101000a900473ffffffffffffffffffffffffffffffffffffffff1673ffffffffffffffffffffffffffffffffffffffff161415610576576040517f08c379a000000000000000000000000000000000000000000000000000000000815260040161056d90611402565b60405180910390fd5b346003600084815260200190815260200160002060060154146105ce576040517f08c379a00000000000000000000000000000000000000000000000000000000081526004016105c590611442565b60405180910390fd5b600115156003600084815260200190815260200160002060020160009054906101000a900460ff16151514610638576040517f08c379a000000000000000000000000000000000000000000000000000000000815260040161062f90611422565b60405180910390fd5b6003600083815260200190815260200160002060040160009054906101000a900473ffffffffffffffffffffffffffffffffffffffff1673ffffffffffffffffffffffffffffffffffffffff166108fc60036000858152602001908152602001600020600601549081150290604051600060405180830381858888f193505050501580156106ca573d6000803e3d6000fd5b5060006003600084815260200190815260200160002060020160006101000a81548160ff021916908315150217905550336003600084815260200190815260200160002060050160006101000a81548173ffffffffffffffffffffffffffffffffffffffff021916908373ffffffffffffffffffffffffffffffffffffffff160217905550600160025461075e91906115b1565b6002819055507f1f4ede084b420f1723c016e7cc7cbf2879901b3336d4ac99dfad36460898f1ea826040516107939190611484565b60405180910390a1600360008381526020019081526020016000206040518060e00160405290816000820180546107c99061166f565b80601f01602080910402602001604051908101604052809291908181526020018280546107f59061166f565b80156108425780601f1061081757610100808354040283529160200191610842565b820191906000526020600020905b81548152906001019060200180831161082557829003601f168201915b5050505050815260200160018201805461085b9061166f565b80601f01602080910402602001604051908101604052809291908181526020018280546108879061166f565b80156108d45780601f106108a9576101008083540402835291602001916108d4565b820191906000526020600020905b8154815290600101906020018083116108b757829003601f168201915b505050505081526020016002820160009054906101000a900460ff16151515158152602001600382015481526020016004820160009054906101000a900473ffffffffffffffffffffffffffffffffffffffff1673ffffffffffffffffffffffffffffffffffffffff1673ffffffffffffffffffffffffffffffffffffffff1681526020016005820160009054906101000a900473ffffffffffffffffffffffffffffffffffffffff1673ffffffffffffffffffffffffffffffffffffffff1673ffffffffffffffffffffffffffffffffffffffff1681526020016006820154815250509050919050565b6109c7610e1f565b6000821180156109d8575060015482105b610a17576040517f08c379a0000000000000000000000000000000000000000000000000000000008152600401610a0e906113c2565b60405180910390fd5b600360008381526020019081526020016000206040518060e0016040529081600082018054610a459061166f565b80601f0160208091040260200160405190810160405280929190818152602001828054610a719061166f565b8015610abe5780601f10610a9357610100808354040283529160200191610abe565b820191906000526020600020905b815481529060010190602001808311610aa157829003601f168201915b50505050508152602001600182018054610ad79061166f565b80601f0160208091040260200160405190810160405280929190818152602001828054610b039061166f565b8015610b505780601f10610b2557610100808354040283529160200191610b50565b820191906000526020600020905b815481529060010190602001808311610b3357829003601f168201915b505050505081526020016002820160009054906101000a900460ff16151515158152602001600382015481526020016004820160009054906101000a900473ffffffffffffffffffffffffffffffffffffffff1673ffffffffffffffffffffffffffffffffffffffff1673ffffffffffffffffffffffffffffffffffffffff1681526020016005820160009054906101000a900473ffffffffffffffffffffffffffffffffffffffff1673ffffffffffffffffffffffffffffffffffffffff1673ffffffffffffffffffffffffffffffffffffffff1681526020016006820154815250509050919050565b60006040518060e0016040528085815260200184815260200160011515815260200160015481526020013373ffffffffffffffffffffffffffffffffffffffff168152602001600073ffffffffffffffffffffffffffffffffffffffff168152602001838152509050806003600060015481526020019081526020016000206000820151816000019080519060200190610cd6929190610e8a565b506020820151816001019080519060200190610cf3929190610e8a565b5060408201518160020160006101000a81548160ff0219169083151502179055506060820151816003015560808201518160040160006101000a81548173ffffffffffffffffffffffffffffffffffffffff021916908373ffffffffffffffffffffffffffffffffffffffff16021790555060a08201518160050160006101000a81548173ffffffffffffffffffffffffffffffffffffffff021916908373ffffffffffffffffffffffffffffffffffffffff16021790555060c082015181600601559050507f74422e56f75e568c59d90ac2ba955b50c509b32dacfca31e1f84ea04e5f4a93281604051610de89190611462565b60405180910390a160018054610dfe919061155b565b6001819055506001600254610e13919061155b565b60028190555050505050565b6040518060e00160405280606081526020016060815260200160001515815260200160008152602001600073ffffffffffffffffffffffffffffffffffffffff168152602001600073ffffffffffffffffffffffffffffffffffffffff168152602001600081525090565b828054610e969061166f565b90600052602060002090601f016020900481019282610eb85760008555610eff565b82601f10610ed157805160ff1916838001178555610eff565b82800160010185558215610eff579182015b82811115610efe578251825591602001919060010190610ee3565b5b509050610f0c9190610f10565b5090565b5b80821115610f29576000816000905550600101610f11565b5090565b6000610f40610f3b846114c4565b61149f565b905082815260208101848484011115610f5c57610f5b6117dc565b5b610f6784828561162d565b509392505050565b600082601f830112610f8457610f836117d7565b5b8135610f94848260208601610f2d565b91505092915050565b600081359050610fac8161193e565b92915050565b600080600060608486031215610fcb57610fca6117e6565b5b600084013567ffffffffffffffff811115610fe957610fe86117e1565b5b610ff586828701610f6f565b935050602084013567ffffffffffffffff811115611016576110156117e1565b5b61102286828701610f6f565b925050604061103386828701610f9d565b9150509250925092565b600060208284031215611053576110526117e6565b5b600061106184828501610f9d565b91505092915050565b6000611076838361121c565b905092915050565b611087816115e5565b82525050565b600061109882611505565b6110a28185611528565b9350836020820285016110b4856114f5565b8060005b858110156110f057848403895281516110d1858261106a565b94506110dc8361151b565b925060208a019950506001810190506110b8565b50829750879550505050505092915050565b61110b816115f7565b82525050565b600061111c82611510565b6111268185611539565b935061113681856020860161163c565b61113f816117eb565b840191505092915050565b600061115760158361154a565b9150611162826117fc565b602082019050919050565b600061117a60148361154a565b915061118582611825565b602082019050919050565b600061119d60228361154a565b91506111a88261184e565b604082019050919050565b60006111c0602f8361154a565b91506111cb8261189d565b604082019050919050565b60006111e3601d8361154a565b91506111ee826118ec565b602082019050919050565b6000611206601f8361154a565b915061121182611915565b602082019050919050565b600060e08301600083015184820360008601526112398282611111565b915050602083015184820360208601526112538282611111565b91505060408301516112686040860182611102565b50606083015161127b6060860182611362565b50608083015161128e608086018261107e565b5060a08301516112a160a086018261107e565b5060c08301516112b460c0860182611362565b508091505092915050565b600060e08301600083015184820360008601526112dc8282611111565b915050602083015184820360208601526112f68282611111565b915050604083015161130b6040860182611102565b50606083015161131e6060860182611362565b506080830151611331608086018261107e565b5060a083015161134460a086018261107e565b5060c083015161135760c0860182611362565b508091505092915050565b61136b81611623565b82525050565b61137a81611623565b82525050565b6000602082019050818103600083015261139a818461108d565b905092915050565b600060208201905081810360008301526113bb8161114a565b9050919050565b600060208201905081810360008301526113db8161116d565b9050919050565b600060208201905081810360008301526113fb81611190565b9050919050565b6000602082019050818103600083015261141b816111b3565b9050919050565b6000602082019050818103600083015261143b816111d6565b9050919050565b6000602082019050818103600083015261145b816111f9565b9050919050565b6000602082019050818103600083015261147c81846112bf565b905092915050565b60006020820190506114996000830184611371565b92915050565b60006114a96114ba565b90506114b582826116a1565b919050565b6000604051905090565b600067ffffffffffffffff8211156114df576114de6117a8565b5b6114e8826117eb565b9050602081019050919050565b6000819050602082019050919050565b600081519050919050565b600081519050919050565b6000602082019050919050565b600082825260208201905092915050565b600082825260208201905092915050565b600082825260208201905092915050565b600061156682611623565b915061157183611623565b9250827fffffffffffffffffffffffffffffffffffffffffffffffffffffffffffffffff038211156115a6576115a561171b565b5b828201905092915050565b60006115bc82611623565b91506115c783611623565b9250828210156115da576115d961171b565b5b828203905092915050565b60006115f082611603565b9050919050565b60008115159050919050565b600073ffffffffffffffffffffffffffffffffffffffff82169050919050565b6000819050919050565b82818337600083830152505050565b60005b8381101561165a57808201518184015260208101905061163f565b83811115611669576000848401525b50505050565b6000600282049050600182168061168757607f821691505b6020821081141561169b5761169a61174a565b5b50919050565b6116aa826117eb565b810181811067ffffffffffffffff821117156116c9576116c86117a8565b5b80604052505050565b60006116dd82611623565b91507fffffffffffffffffffffffffffffffffffffffffffffffffffffffffffffffff8214156117105761170f61171b565b5b600182019050919050565b7f4e487b7100000000000000000000000000000000000000000000000000000000600052601160045260246000fd5b7f4e487b7100000000000000000000000000000000000000000000000000000000600052602260045260246000fd5b7f4e487b7100000000000000000000000000000000000000000000000000000000600052603260045260246000fd5b7f4e487b7100000000000000000000000000000000000000000000000000000000600052604160045260246000fd5b600080fd5b600080fd5b600080fd5b600080fd5b6000601f19601f8301169050919050565b7f50726f6475637420646f65736e27742065786973740000000000000000000000600082015250565b7f496e636f72726563742070726f64756374206964000000000000000000000000600082015250565b7f5468652061727469636c652068617320616c7265616479206265656e20736f6c60008201527f642e000000000000000000000000000000000000000000000000000000000000602082015250565b7f53656c6c657220616e6420637573746f6d65722063616e6e6f7420626520746860008201527f652073616d65206163636f756e742e0000000000000000000000000000000000602082015250565b7f50726f64756374206973206e6f74206c6f6e67657220696e2073656c6c000000600082015250565b7f507269636520616e642074782076616c75652073686f756c64206d6565742e00600082015250565b61194781611623565b811461195257600080fd5b5056fea26469706673582212201391f3ae3f0b6503721677d12efb2d216ab1b78006de0ada183a13c9f3a63be964736f6c63430008060033",
  "immutableReferences": {},
  "source": "// SPDX-License-Identifier: MIT\r\npragma solidity ^0.8.0;\r\n\r\ncontract MarketPlace {\r\n  \r\n  struct Product {\r\n    string name;\r\n    string description;\r\n    bool selling;\r\n    uint256 productId;\r\n    address seller;\r\n    address soldTo;\r\n    uint256 price;\r\n  }\r\n\r\n  string name;\r\n\r\n  uint256 nextProductId = 1;\r\n  uint256 productsToSell = 0;\r\n\r\n  mapping (uint256 => Product) products;\r\n\r\n  event LogProductBought(uint256 productId);\r\n\r\n  event LogProductInSell(Product product);\r\n  \r\n\r\n  constructor(string memory _name) {\r\n    name = _name;\r\n    nextProductId = 1;\r\n  }\r\n\r\n  function addProductToSell( \r\n    string memory _name,\r\n    string memory _description,\r\n    uint256 _price\r\n    ) external {\r\n      \r\n    // Setting Product struct fields\r\n    Product memory product = Product(_name, _description, true, nextProductId, msg.sender, address(0), _price);\r\n\r\n    // Altering state\r\n    products[nextProductId] = product;\r\n    emit LogProductInSell(product);\r\n    nextProductId = nextProductId + 1;\r\n    productsToSell = productsToSell + 1;\r\n  }\r\n\r\n  function getProductsInSell() public view returns (Product[] memory) {\r\n    uint j = 0;\r\n    Product[] memory _products = new Product[](productsToSell);\r\n    for (uint256 i = 1; i < nextProductId && j < productsToSell; i++) {\r\n      if (products[i].selling == true) {\r\n        _products[j] = products[i];\r\n        j++;\r\n      }\r\n    }\r\n    return _products;\r\n  }\r\n\r\n  function getProduct(uint256 productId) public view returns (Product memory) {\r\n    require(productId > 0 && productId < nextProductId, \"Incorrect product id\");\r\n    return products[productId];\r\n  }\r\n\r\n  function buyProduct(uint256 productId) payable external returns(Product memory) {\r\n\r\n    // Provided product exists in products array\r\n    require(productId > 0 && productId < nextProductId, \"Product doesn't exist\");\r\n\r\n    // If sell conditions are met\r\n    require(products[productId].selling, \"The article has already been sold.\");\r\n    require(products[productId].seller != msg.sender, \"Seller and customer cannot be the same account.\");\r\n    require(products[productId].price == uint256(msg.value), \"Price and tx value should meet.\");\r\n    require(products[productId].selling == true, \"Product is not longer in sell\");\r\n\r\n    // Then we process the tx\r\n    payable(products[productId].seller).transfer(products[productId].price);\r\n    products[productId].selling = false;\r\n    products[productId].soldTo = msg.sender;\r\n    productsToSell = productsToSell - 1;\r\n\r\n    // And emit the correspondant event\r\n    emit LogProductBought(productId);\r\n\r\n    return products[productId];\r\n  }\r\n  \r\n}",
  "sourcePath": "C:/Users/Pablo/ChainSkills/Training/GreetingsTruffle/contracts/MarketPlace.sol",
  "compiler": {
    "name": "solc",
    "version": "0.8.6+commit.11564f7e.Emscripten.clang"
  },
  "schemaVersion": "3.4.1",
  "updatedAt": "2021-07-29T19:49:19.356Z",
  "networkType": "ethereum",
  "devdoc": {
    "kind": "dev",
    "methods": {},
    "version": 1
  },
  "userdoc": {
    "kind": "user",
    "methods": {},
    "version": 1
  }
}